{
  "_format": "hh-sol-artifact-1",
  "contractName": "ModifyVariable",
  "sourceName": "contracts/ModifyVariable.sol",
  "abi": [
    {
      "inputs": [
        {
          "internalType": "string",
          "name": "_s",
          "type": "string"
        }
      ],
      "stateMutability": "nonpayable",
      "type": "constructor"
    },
    {
      "inputs": [],
      "name": "modifyString",
      "outputs": [],
      "stateMutability": "nonpayable",
      "type": "function"
    },
    {
      "inputs": [],
      "name": "s",
      "outputs": [
        {
          "internalType": "string",
          "name": "",
          "type": "string"
        }
      ],
      "stateMutability": "view",
      "type": "function"
    }
  ],
  "bytecode": "0x608060405234801561001057600080fd5b506040516106393803806106398339818101604052810190610032919061015a565b806000908051906020019061004892919061004f565b50506102f6565b82805461005b90610224565b90600052602060002090601f01602090048101928261007d57600085556100c4565b82601f1061009657805160ff19168380011785556100c4565b828001600101855582156100c4579182015b828111156100c35782518255916020019190600101906100a8565b5b5090506100d191906100d5565b5090565b5b808211156100ee5760008160009055506001016100d6565b5090565b6000610105610100846101c0565b61019b565b90508281526020810184848401111561011d57600080fd5b6101288482856101f1565b509392505050565b600082601f83011261014157600080fd5b81516101518482602086016100f2565b91505092915050565b60006020828403121561016c57600080fd5b600082015167ffffffffffffffff81111561018657600080fd5b61019284828501610130565b91505092915050565b60006101a56101b6565b90506101b18282610256565b919050565b6000604051905090565b600067ffffffffffffffff8211156101db576101da6102b6565b5b6101e4826102e5565b9050602081019050919050565b60005b8381101561020f5780820151818401526020810190506101f4565b8381111561021e576000848401525b50505050565b6000600282049050600182168061023c57607f821691505b602082108114156102505761024f610287565b5b50919050565b61025f826102e5565b810181811067ffffffffffffffff8211171561027e5761027d6102b6565b5b80604052505050565b7f4e487b7100000000000000000000000000000000000000000000000000000000600052602260045260246000fd5b7f4e487b7100000000000000000000000000000000000000000000000000000000600052604160045260246000fd5b6000601f19601f8301169050919050565b610334806103056000396000f3fe608060405234801561001057600080fd5b50600436106100365760003560e01c80631abd9de41461003b57806386b714e214610045575b600080fd5b610043610063565b005b61004d6100b1565b60405161005a919061021b565b60405180910390f35b6040518060400160405280600581526020017f4275646479000000000000000000000000000000000000000000000000000000815250600090805190602001906100ae92919061013f565b50565b600080546100be9061028c565b80601f01602080910402602001604051908101604052809291908181526020018280546100ea9061028c565b80156101375780601f1061010c57610100808354040283529160200191610137565b820191906000526020600020905b81548152906001019060200180831161011a57829003601f168201915b505050505081565b82805461014b9061028c565b90600052602060002090601f01602090048101928261016d57600085556101b4565b82601f1061018657805160ff19168380011785556101b4565b828001600101855582156101b4579182015b828111156101b3578251825591602001919060010190610198565b5b5090506101c191906101c5565b5090565b5b808211156101de5760008160009055506001016101c6565b5090565b60006101ed8261023d565b6101f78185610248565b9350610207818560208601610259565b610210816102ed565b840191505092915050565b6000602082019050818103600083015261023581846101e2565b905092915050565b600081519050919050565b600082825260208201905092915050565b60005b8381101561027757808201518184015260208101905061025c565b83811115610286576000848401525b50505050565b600060028204905060018216806102a457607f821691505b602082108114156102b8576102b76102be565b5b50919050565b7f4e487b7100000000000000000000000000000000000000000000000000000000600052602260045260246000fd5b6000601f19601f830116905091905056fea26469706673582212204bd9e1d7eb406462967b51433f8f60f33e81bbf03101eaad0ed5c04a0b6ed36064736f6c63430008040033",
  "linkReferences": {},
  "deployedLinkReferences": {}
}